:100000000C945D000C9485000C9485000C94850084
:100010000C9485000C9485000C9485000C9485004C
:100020000C9485000C9485000C9485000C9485003C
:100030000C9485000C9485000C9485000C9485002C
:100040000C943D020C9485000C9425050C945705E6
:100050000C9485000C9485000C9485000C9485000C
:100060000C9485000C94850000000008000201003B
:100070000003040700000000000000000102040863
:100080001020408001020408102001020408102002
:10009000040404040404040402020202020203032E
:1000A0000303030300000000250028002B000000CC
:1000B0000000240027002A00870511241FBECFEF6F
:1000C000D8E0DEBFCDBF11E0A0E0B1E0E6E4F4E1AE
:1000D00002C005900D92A23BB107D9F722E0A2EB36
:1000E000B1E001C01D92AF38B207E1F710E0CAEBF2
:1000F000D0E004C02297FE010E941D0AC83BD10730
:10010000C9F70E94CB050C94210A0C940000CF93F0
:1001100040ED57E060E070E082EB91E00E94A401C6
:1001200020E835E240E050E062EF71E082EB91E0E0
:100130000E94B70182EB91E00E94A10161E071E0B1
:100140008091E3019091E4010E9418066AE070E05A
:1001500080E090E00E94B60241E060E082EB91E036
:100160000E94220226E040E855E260E070E082EF63
:1001700091E00E94C304C3E061E08C2F0E947103F0
:1001800060E08C2F0E94AA03CF5FC630A9F7CF9101
:100190000895CF92DF92EF92FF928EE00E942B03A0
:1001A0007C0163E171E082EF91E00E9418064AE071
:1001B00050E0B70182EF91E00E94BE06B7018827A8
:1001C00077FD8095982F0E94DE0820E030E040E81F
:1001D0005AE30E94920920E030E040EA50E40E9495
:1001E00092096B017C0162E271E082EF91E00E9472
:1001F000180622E030E0B701A60182EF91E00E94EC
:10020000C50720E030E040E05FE3C701B6010E948F
:10021000DA0720E030E048EC52E40E9492096B01DA
:100220007C016CE271E082EF91E00E94180622E00E
:1002300030E0B701A60182EF91E00E94C70720E0FD
:1002400030E048EC51E4C701B6010E943F0887FF47
:1002500002C060E015C020E030E048EC51E4C70186
:10026000B6010E948E0987FD10C020E030E048ED05
:1002700051E4C701B6010E943F0887FF06C061E054
:1002800083E00E94AA0360E019C020E030E048ED5E
:1002900051E4C701B6010E948E0987FD14C020E019
:1002A00030E048EE51E4C701B6010E943F0887FFE5
:1002B0000AC061E083E00E94AA0361E084E00E943A
:1002C000AA0360E009C061E083E00E94AA0361E044
:1002D00084E00E94AA0361E085E00E94AA0364E62C
:1002E00070E080E090E0FF90EF90DF90CF900C9472
:1002F000B6020F931F93CF93DF93EC01662359F05F
:100300000E94870269837A838B839C83DF91CF91DC
:100310001F910F9108950E94870209811A812B81F4
:100320003C81601B710B820B930B6132710581055F
:10033000910530F763E070E080E090E00E94B60243
:10034000EACF60E00C947901FC0113AA14AA15AA63
:1003500016AA118212821382148241155105610579
:10036000710521F0CB01BA010C94B6020895FB018E
:10037000BA01A901DC01D296FC93EE93D19726E055
:10038000CF010C94C3041F93CF93DF93EC01162F7E
:100390006BE371E089A99AA90E9418064AE050E02F
:1003A000612F89A99AA90E94D30662E471E089A904
:1003B0009AA90E94180662E370E080E090E0DF9165
:1003C000CF911F910C94B6021F93CF93DF93EC0152
:1003D000162F8D81882389F189A99AA9DC01ED91D5
:1003E000FC910480F581E02D0995892BA9F307C0C4
:1003F0002637310519F12835310509F41D8289A9FF
:100400009AA9DC01ED91FC910480F581E02D09951C
:100410001816190694F489A99AA9DC01ED91FC91AA
:100420000680F781E02D09959C013327233631059D
:10043000F9F6612FCE010E94C30183E6DF91CF91CF
:100440001F9108950F931F93CF93DF931F92CDB702
:10045000DEB78C01662349F081E0F801858360E016
:10046000C80149830E94E4014981F80145830F9046
:10047000DF91CF911F910F9108951F920F920FB6A8
:100480000F9211242F933F938F939F93AF93BF931A
:100490008091EA019091EB01A091EC01B091ED0106
:1004A0003091E90123E0230F2D3720F40196A11D9F
:1004B000B11D05C026E8230F0296A11DB11D209392
:1004C000E9018093EA019093EB01A093EC01B093D2
:1004D000ED018091EE019091EF01A091F001B091BA
:1004E000F1010196A11DB11D8093EE019093EF01E2
:1004F000A093F001B093F101BF91AF919F918F91C3
:100500003F912F910F900FBE0F901F9018952FB70E
:10051000F8946091EA017091EB018091EC01909167
:10052000ED012FBF08953FB7F8948091EE019091AF
:10053000EF01A091F001B091F10126B5A89B05C093
:100540002F3F19F00196A11DB11D3FBF6627782FDF
:10055000892F9A2F620F711D811D911D42E0660F38
:10056000771F881F991F4A95D1F708958F929F9200
:10057000AF92BF92CF92DF92EF92FF926B017C011C
:100580000E9493024B015C01C114D104E104F10407
:10059000F1F00E94D9070E949302681979098A092B
:1005A0009B09683E73408105910570F321E0C21AF2
:1005B000D108E108F10888EE880E83E0981EA11C9E
:1005C000B11CC114D104E104F10429F7DDCFFF907F
:1005D000EF90DF90CF90BF90AF909F908F90089555
:1005E000789484B5826084BD84B5816084BD85B50E
:1005F000826085BD85B5816085BDEEE6F0E08081D5
:1006000081608083E1E8F0E01082808182608083F5
:10061000808181608083E0E8F0E080818160808378
:10062000E1EBF0E0808184608083E0EBF0E08081AA
:1006300081608083EAE7F0E080818460808380814C
:1006400082608083808181608083808180688083F4
:100650001092C10008958E3008F08E50877020915E
:10066000000190E4299F90011124822B80937C004B
:1006700080917A00806480937A0080917A0086FD70
:10068000FCCF809178002091790090E0922B089522
:10069000833081F028F4813099F08230A1F0089500
:1006A0008730A9F08830B9F08430D1F4809180008F
:1006B0008F7D03C0809180008F77809380000895A4
:1006C00084B58F7702C084B58F7D84BD08958091F5
:1006D000B0008F7703C08091B0008F7D8093B00011
:1006E0000895CF93DF9390E0FC01E458FF4F2491ED
:1006F000FC01E057FF4F8491882349F190E0880F77
:10070000991FFC01E255FF4FA591B4918C559F4F65
:10071000FC01C591D4919FB7611108C0F8948C91E8
:10072000209582238C93888182230AC0623051F401
:10073000F8948C91322F309583238C938881822B6F
:10074000888304C0F8948C91822B8C939FBFDF9197
:10075000CF9108950F931F93CF93DF931F92CDB73F
:10076000DEB7282F30E0F901E859FF4F8491F901F5
:10077000E458FF4F1491F901E057FF4F0491002313
:10078000C9F0882321F069830E9448036981E02F22
:10079000F0E0EE0FFF1FEC55FF4FA591B4919FB70E
:1007A000F8948C91611103C01095812301C0812BB5
:1007B0008C939FBF0F90DF91CF911F910F91089560
:1007C000FC01818D228D90E0805C9F4F821B9109FE
:1007D0008F7399270895FC01918D828D981731F0C0
:1007E000828DE80FF11D858D90E008958FEF9FEFCA
:1007F0000895FC01918D828D981761F0828DDF0143
:10080000A80FB11D5D968C91928D9F5F9F73928F03
:1008100090E008958FEF9FEF08958DE795E0892B85
:1008200049F080E090E0892B29F00E947D0581113C
:100830000C9400000895FC01848DDF01A80FB11D08
:10084000A35ABF4F2C91848D90E001968F73992706
:10085000848FA689B7892C93A089B1898C918064F3
:100860008C93938D848D981306C00288F389E02DB4
:1008700080818F7D80830895CF93DF93EC01888DF5
:100880008823C9F0EA89FB89808185FD05C0A88994
:10089000B9898C9186FD0FC00FB607FCF5CF80811A
:1008A00085FFF2CFA889B9898C9185FFEDCFCE0164
:1008B0000E941B04E7CFDF91CF910895CF92DF9282
:1008C000FF920F931F93CF93DF931F92CDB7DEB7A5
:1008D0006C0181E0D60158968C9358975B969C9159
:1008E0005B975C968C915C97981307C05096ED913E
:1008F000FC915197808185FD2EC0F601038D10E09B
:100900000F5F1F4F0F731127F02EF601848DF81221
:1009100011C00FB607FCF9CFD6015096ED91FC91AE
:100920005197808185FFF1CFC60169830E941B0426
:100930006981EBCF838DE80FF11DE35AFF4F608390
:10094000D6015B960C935B975296ED91FC91539771
:10095000808180620CC0D6015696ED91FC9157972C
:1009600060835096ED91FC915197808180648083E3
:1009700081E090E00F90DF91CF911F910F91FF9058
:10098000DF90CF900895BF92CF92DF92EF92FF92C7
:10099000CF93DF93EC016A017B01B22EE889F989DC
:1009A00082E08083411581EE580761057105A1F051
:1009B00060E079E08DE390E0A70196010E94F909DB
:1009C0002150310941095109569547953795279589
:1009D000211580E1380798F0E889F989108260E8EC
:1009E00074E88EE190E0A70196010E94F909215078
:1009F0003109410951095695479537952795EC8559
:100A0000FD853083EE85FF852083188EEC89FD8976
:100A1000B082EA89FB89808180618083EA89FB89D1
:100A2000808188608083EA89FB89808180688083F7
:100A3000EA89FB8980818F7D8083DF91CF91FF9050
:100A4000EF90DF90CF90BF9008951F920F920FB656
:100A50000F9211242F938F939F93EF93FF93E09125
:100A60000202F09103028081E0910802F0910902F4
:100A700082FD12C0908180910B028F5F8F73209155
:100A80000C02821751F0E0910B02F0E0EE50FE4FA5
:100A9000958F80930B0201C08081FF91EF919F9110
:100AA0008F912F910F900FBE0F901F9018951F924E
:100AB0000F920FB60F9211242F933F934F935F9392
:100AC0006F937F938F939F93AF93BF93EF93FF9316
:100AD00082EF91E00E941B04FF91EF91BF91AF91D3
:100AE0009F918F917F916F915F914F913F912F9146
:100AF0000F900FBE0F901F90189582EF91E00E940B
:100B0000E00321E0892B09F420E0822F0895109260
:100B1000F5011092F40188EE93E0A0E0B0E080933C
:100B2000F6019093F701A093F801B093F90187E9DA
:100B300091E09093F3018093F20185EC90E0909323
:100B4000FF018093FE0184EC90E09093010280937A
:100B5000000280EC90E0909303028093020281EC0B
:100B600090E0909305028093040282EC90E09093D1
:100B700007028093060286EC90E09093090280932E
:100B8000080210920B0210920C0210920D021092A9
:100B90000E02089508950E94F0020E94CA050E9464
:100BA0008700CDE0D4E00E94C9002097E1F30E94C5
:100BB0000D04F9CFCF92DF92EF92FF920F931F9324
:100BC000CF93DF937C016A01EB0100E010E00C158C
:100BD0001D0571F06991D701ED91FC910190F081B3
:100BE000E02DC7010995892B19F00F5F1F4FEFCF3B
:100BF000C801DF91CF911F910F91FF90EF90DF908F
:100C0000CF9008956115710581F0DB010D900020F2
:100C1000E9F7AD0141505109461B570BDC01ED913D
:100C2000FC910280F381E02D099480E090E008952A
:100C30000C940206DC01ED91FC910190F081E02D15
:100C4000099468E471E00C9402068F929F92AF922F
:100C5000BF92DF92EF92FF920F931F93CF93DF9398
:100C6000CDB7DEB7A1970FB6F894DEBF0FBECDBFEC
:100C70007C01F42FD52ECB0119A2223008F42AE0F2
:100C80008E010F5D1F4F822E912CA12CB12C6F2F46
:100C90007D2DA50194010E94F909F22FD32ECA01DE
:100CA000015011096A3014F4E0E301C0E7E3E60FF4
:100CB000D801EC93232B242B252B49F7B801C7012E
:100CC0000E940206A1960FB6F894DEBF0FBECDBFFC
:100CD000DF91CF911F910F91FF90EF90DF90BF9028
:100CE000AF909F908F900895CF92DF92EF92FF92F6
:100CF0000F931F93CF93DF93EC016A017B012115C2
:100D0000310579F4E881F9810190F081E02D642FBB
:100D1000DF91CF911F910F91FF90EF90DF90CF90D7
:100D200009942A303105E9F477FF1AC06DE20E9478
:100D30001A068C0144275527BA014C195D096E0922
:100D40007F092AE0CE010E942506800F911FDF91C6
:100D5000CF911F910F91FF90EF90DF90CF9008956A
:100D60002AE0B701A601CE01DF91CF911F910F912B
:100D7000FF90EF90DF90CF900C9425069A01AB0185
:100D8000662757FD6095762F0C9474062115310562
:100D900041F4DC01ED91FC910190F081E02D642F94
:100DA00009940C9425069A01462F50E060E070E00B
:100DB0000C94C6064F925F926F927F928F929F9291
:100DC000AF92BF92CF92DF92EF92FF920F931F9359
:100DD000CF93DF93EC016A017B01B22E9A01AB0144
:100DE000C701B6010E94F509882319F063EA71E092
:100DF00027C026013701E89477F82FEF3FEF4FE740
:100E00005FE7C301B2010E94F50981110DC02FEF08
:100E10003FEF4FE75FE7C301B2010E943F0818169A
:100E20001CF467EA71E00CC02FEF3FEF4FE75FE47F
:100E3000C701B6010E948E091816ACF46BEA71E086
:100E4000CE01DF91CF911F910F91FF90EF90DF9036
:100E5000CF90BF90AF909F908F907F906F905F905A
:100E60004F900C9402062FEF3FEF4FE75FECC70166
:100E7000B6010E943F0887FDE1CF20E030E0A901E4
:100E8000C701B6010E943F0887FF0AC06DE2CE018C
:100E90000E941A068C01F7FAF094F7F8F09402C059
:100EA00000E010E0A12C60E070E080E09FE3AB1474
:100EB00041F020E030E040E251E40E944308A39476
:100EC000F6CF9B01AC01C701B6010E94DB076B01A5
:100ED0007C010E94B0082B013C010E94DC089B01B0
:100EE000AC01C701B6010E94DA076B017C012AE060
:100EF000B301A201CE010E942506080F191FBB20D5
:100F000039F06FEA71E0CE010E940206080F191F46
:100F10007B2C772041F120E030E040E251E4C70132
:100F2000B6010E9492096B017C010E94AB084B0143
:100F3000AA2497FCA094BA2C2AE030E0B501A401C1
:100F4000CE010E947406080F191FC501B4010E944A
:100F5000DE089B01AC01C701B6010E94DA076B01F4
:100F60007C017A94D6CFC801DF91CF911F910F9168
:100F7000FF90EF90DF90CF90BF90AF909F908F90B9
:100F80007F906F905F904F9008950C94DA060F93C6
:100F90001F93CF93DF93EC010E94DA068C01CE0100
:100FA0000E942106800F911FDF91CF911F910F9119
:100FB000089508955058BB27AA270ED075C166D151
:100FC00030F06BD120F031F49F3F11F41EF45BC17F
:100FD0000EF4E095E7FB51C1E92F77D180F3BA1702
:100FE000620773078407950718F071F49EF58FC1A7
:100FF0000EF4E0950B2EBA2FA02D0B01B901900134
:101000000C01CA01A0011124FF27591B99F0593F77
:1010100050F4503E68F11A16F040A22F232F342FBF
:101020004427585FF3CF469537952795A795F0400D
:101030005395C9F77EF41F16BA0B620B730B840B22
:10104000BAF09150A1F0FF0FBB1F661F771F881FDA
:10105000C2F70EC0BA0F621F731F841F48F4879532
:1010600077956795B795F7959E3F08F0B3CF939521
:10107000880F08F09927EE0F979587950895D9D096
:1010800008F481E008950CD00FC107D140F0FED0E4
:1010900030F021F45F3F19F0F0C0511139C1F3C0B5
:1010A00014D198F39923C9F35523B1F3951B550B2C
:1010B000BB27AA2762177307840738F09F5F5F4F2B
:1010C000220F331F441FAA1FA9F333D00E2E3AF06C
:1010D000E0E830D091505040E695001CCAF729D086
:1010E000FE2F27D0660F771F881FBB1F26173707D5
:1010F0004807AB07B0E809F0BB0B802DBF01FF2705
:1011000093585F4F2AF09E3F510568F0B6C000C16A
:101110005F3FECF3983EDCF3869577956795B7953E
:10112000F7959F5FC9F7880F911D9695879597F959
:101130000895E1E0660F771F881FBB1F62177307D2
:101140008407BA0720F0621B730B840BBA0BEE1FE7
:1011500088F7E095089504D06894B111D9C0089536
:10116000BCD088F09F5790F0B92F9927B751A0F0C5
:10117000D1F0660F771F881F991F1AF0BA95C9F72B
:1011800012C0B13081F0C3D0B1E00895C0C0672F64
:10119000782F8827B85F39F0B93FCCF386957795DB
:1011A0006795B395D9F73EF49095809570956195C4
:1011B0007F4F8F4F9F4F0895E89409C097FB3EF4EF
:1011C00090958095709561957F4F8F4F9F4F992394
:1011D000A9F0F92F96E9BB279395F6958795779512
:1011E0006795B795F111F8CFFAF4BB0F11F460FFD2
:1011F0001BC06F5F7F4F8F4F9F4F16C0882311F02A
:1012000096E911C0772321F09EE8872F762F05C03D
:10121000662371F096E8862F70E060E02AF09A95D8
:10122000660F771F881FDAF7880F9695879597F9CD
:101230000895990F0008550FAA0BE0E8FEEF161667
:101240001706E807F907C0F012161306E407F507BA
:1012500098F0621B730B840B950B39F40A2661F02E
:10126000232B242B252B21F408950A2609F4A140D1
:10127000A6958FEF811D811D089597F99F6780E8DE
:1012800070E060E008959FEF80EC089500240A94D8
:101290001616170618060906089500240A94121651
:1012A0001306140605060895092E0394000C11F484
:1012B000882352F0BB0F40F4BF2B11F460FF04C031
:1012C0006F5F7F4F8F4F9F4F089557FD9058440F8A
:1012D000551F59F05F3F71F04795880F97FB991F95
:1012E00061F09F3F79F08795089512161306140652
:1012F000551FF2CF4695F1DF08C0161617061806DF
:10130000991FF1CF86957105610508940895E894B9
:10131000BB2766277727CB0197F908958ADF08F462
:101320008FEF08950BD0C0CFB1DF28F0B6DF18F0F3
:10133000952309F0A2CFA7CF1124EACFC6DFA0F3EF
:10134000959FD1F3950F50E0551F629FF001729F5A
:10135000BB27F00DB11D639FAA27F00DB11DAA1F79
:10136000649F6627B00DA11D661F829F2227B00DC6
:10137000A11D621F739FB00DA11D621F839FA00D51
:10138000611D221F749F3327A00D611D231F849FA1
:10139000600D211D822F762F6A2F11249F575040F8
:1013A0008AF0E1F088234AF0EE0FFF1FBB1F661F93
:1013B000771F881F91505040A9F79E3F510570F04C
:1013C0005CCFA6CF5F3FECF3983EDCF38695779534
:1013D0006795B795F795E7959F5FC1F7FE2B880F47
:1013E000911D9695879597F9089523DF880B990BA2
:1013F0000895A1E21A2EAA1BBB1BFD010DC0AA1F56
:10140000BB1FEE1FFF1FA217B307E407F50720F06D
:10141000A21BB30BE40BF50B661F771F881F991FE8
:101420001A9469F760957095809590959B01AC0131
:10143000BD01CF010895EE0FFF1F0590F491E02D3F
:061440000994F894FFCFAF
:1014460001564D4450565F317C315F564D445056DF
:101456000D0A0053656E736F722076616C75653A7E
:1014660020002E20566F6C74733A20002E204365A0
:101476006E746967726174653A2000564D44504334
:101486005F005F564D4450430D0A004572726F72FD
:101496003A20417474656D707420746F207365749E
:1014A600206120726561642D6F6E6C7920766172A1
:1014B6006961626C65206F72206461746120747961
:1014C6007065206E6F7420737570706F72746564CA
:1014D6000D0A00000000005E04DA05E003F903EBE4
:1014E600033C046E616E00696E66006F7666002EC0
:0214F6000000F4
:00000001FF
